{
  "_format": "hh-sol-artifact-1",
  "contractName": "Vox",
  "sourceName": "contracts/Vox.sol",
  "abi": [
    {
      "inputs": [],
      "name": "IncorrectPasscodeOrIndex",
      "type": "error"
    },
    {
      "inputs": [
        {
          "internalType": "string",
          "name": "text",
          "type": "string"
        },
        {
          "internalType": "uint256",
          "name": "passcode",
          "type": "uint256"
        }
      ],
      "name": "addVox",
      "outputs": [],
      "stateMutability": "nonpayable",
      "type": "function"
    },
    {
      "inputs": [],
      "name": "getLast",
      "outputs": [
        {
          "internalType": "uint256",
          "name": "",
          "type": "uint256"
        }
      ],
      "stateMutability": "view",
      "type": "function"
    },
    {
      "inputs": [
        {
          "internalType": "uint256",
          "name": "index",
          "type": "uint256"
        },
        {
          "internalType": "uint256",
          "name": "passcode",
          "type": "uint256"
        }
      ],
      "name": "getVox",
      "outputs": [
        {
          "components": [
            {
              "internalType": "address",
              "name": "owner",
              "type": "address"
            },
            {
              "internalType": "string",
              "name": "text",
              "type": "string"
            },
            {
              "internalType": "uint256",
              "name": "timestamp",
              "type": "uint256"
            },
            {
              "internalType": "uint256",
              "name": "passcode",
              "type": "uint256"
            }
          ],
          "internalType": "struct Vox.vox",
          "name": "",
          "type": "tuple"
        }
      ],
      "stateMutability": "view",
      "type": "function"
    }
  ],
  "bytecode": "0x608060405234801561001057600080fd5b50610a5c806100206000396000f3fe608060405234801561001057600080fd5b50600436106100415760003560e01c80634d62283114610046578063d917884d14610064578063f1859b2614610094575b600080fd5b61004e6100b0565b60405161005b9190610388565b60405180910390f35b61007e600480360381019061007991906103e3565b6100bc565b60405161008b9190610566565b60405180910390f35b6100ae60048036038101906100a991906106bd565b610258565b005b60008080549050905090565b6100c4610331565b81600084815481106100d9576100d8610719565b5b90600052602060002090600402016003015403610220576000838154811061010457610103610719565b5b90600052602060002090600402016040518060800160405290816000820160009054906101000a900473ffffffffffffffffffffffffffffffffffffffff1673ffffffffffffffffffffffffffffffffffffffff1673ffffffffffffffffffffffffffffffffffffffff16815260200160018201805461018390610777565b80601f01602080910402602001604051908101604052809291908181526020018280546101af90610777565b80156101fc5780601f106101d1576101008083540402835291602001916101fc565b820191906000526020600020905b8154815290600101906020018083116101df57829003601f168201915b50505050508152602001600282015481526020016003820154815250509050610252565b6040517f196ebe5d00000000000000000000000000000000000000000000000000000000815260040160405180910390fd5b92915050565b600060405180608001604052803373ffffffffffffffffffffffffffffffffffffffff16815260200184815260200142815260200183815250908060018154018082558091505060019003906000526020600020906004020160009091909190915060008201518160000160006101000a81548173ffffffffffffffffffffffffffffffffffffffff021916908373ffffffffffffffffffffffffffffffffffffffff16021790555060208201518160010190816103169190610954565b50604082015181600201556060820151816003015550505050565b6040518060800160405280600073ffffffffffffffffffffffffffffffffffffffff1681526020016060815260200160008152602001600081525090565b6000819050919050565b6103828161036f565b82525050565b600060208201905061039d6000830184610379565b92915050565b6000604051905090565b600080fd5b600080fd5b6103c08161036f565b81146103cb57600080fd5b50565b6000813590506103dd816103b7565b92915050565b600080604083850312156103fa576103f96103ad565b5b6000610408858286016103ce565b9250506020610419858286016103ce565b9150509250929050565b600073ffffffffffffffffffffffffffffffffffffffff82169050919050565b600061044e82610423565b9050919050565b61045e81610443565b82525050565b600081519050919050565b600082825260208201905092915050565b60005b8381101561049e578082015181840152602081019050610483565b60008484015250505050565b6000601f19601f8301169050919050565b60006104c682610464565b6104d0818561046f565b93506104e0818560208601610480565b6104e9816104aa565b840191505092915050565b6104fd8161036f565b82525050565b600060808301600083015161051b6000860182610455565b506020830151848203602086015261053382826104bb565b915050604083015161054860408601826104f4565b50606083015161055b60608601826104f4565b508091505092915050565b600060208201905081810360008301526105808184610503565b905092915050565b600080fd5b600080fd5b7f4e487b7100000000000000000000000000000000000000000000000000000000600052604160045260246000fd5b6105ca826104aa565b810181811067ffffffffffffffff821117156105e9576105e8610592565b5b80604052505050565b60006105fc6103a3565b905061060882826105c1565b919050565b600067ffffffffffffffff82111561062857610627610592565b5b610631826104aa565b9050602081019050919050565b82818337600083830152505050565b600061066061065b8461060d565b6105f2565b90508281526020810184848401111561067c5761067b61058d565b5b61068784828561063e565b509392505050565b600082601f8301126106a4576106a3610588565b5b81356106b484826020860161064d565b91505092915050565b600080604083850312156106d4576106d36103ad565b5b600083013567ffffffffffffffff8111156106f2576106f16103b2565b5b6106fe8582860161068f565b925050602061070f858286016103ce565b9150509250929050565b7f4e487b7100000000000000000000000000000000000000000000000000000000600052603260045260246000fd5b7f4e487b7100000000000000000000000000000000000000000000000000000000600052602260045260246000fd5b6000600282049050600182168061078f57607f821691505b6020821081036107a2576107a1610748565b5b50919050565b60008190508160005260206000209050919050565b60006020601f8301049050919050565b600082821b905092915050565b60006008830261080a7fffffffffffffffffffffffffffffffffffffffffffffffffffffffffffffffff826107cd565b61081486836107cd565b95508019841693508086168417925050509392505050565b6000819050919050565b600061085161084c6108478461036f565b61082c565b61036f565b9050919050565b6000819050919050565b61086b83610836565b61087f61087782610858565b8484546107da565b825550505050565b600090565b610894610887565b61089f818484610862565b505050565b5b818110156108c3576108b860008261088c565b6001810190506108a5565b5050565b601f821115610908576108d9816107a8565b6108e2846107bd565b810160208510156108f1578190505b6109056108fd856107bd565b8301826108a4565b50505b505050565b600082821c905092915050565b600061092b6000198460080261090d565b1980831691505092915050565b6000610944838361091a565b9150826002028217905092915050565b61095d82610464565b67ffffffffffffffff81111561097657610975610592565b5b6109808254610777565b61098b8282856108c7565b600060209050601f8311600181146109be57600084156109ac578287015190505b6109b68582610938565b865550610a1e565b601f1984166109cc866107a8565b60005b828110156109f4578489015182556001820191506020850194506020810190506109cf565b86831015610a115784890151610a0d601f89168261091a565b8355505b6001600288020188555050505b50505050505056fea2646970667358221220cb15a2a22e5c21cd48a55b4d15328ec92dddb1a108a680e7d23c5be2f2a6a6c764736f6c63430008110033",
  "linkReferences": {},
  "deployedLinkReferences": {}
}